{
  "contractName": "ToDo",
  "abi": [
    {
      "inputs": [
        {
          "internalType": "string",
          "name": "_content",
          "type": "string"
        },
        {
          "internalType": "string",
          "name": "_author",
          "type": "string"
        }
      ],
      "name": "createTask",
      "outputs": [],
      "stateMutability": "nonpayable",
      "type": "function"
    },
    {
      "inputs": [
        {
          "internalType": "uint256",
          "name": "id",
          "type": "uint256"
        }
      ],
      "name": "getTask",
      "outputs": [
        {
          "internalType": "uint256",
          "name": "",
          "type": "uint256"
        },
        {
          "internalType": "uint256",
          "name": "",
          "type": "uint256"
        },
        {
          "internalType": "string",
          "name": "",
          "type": "string"
        },
        {
          "internalType": "string",
          "name": "",
          "type": "string"
        },
        {
          "internalType": "bool",
          "name": "",
          "type": "bool"
        }
      ],
      "stateMutability": "view",
      "type": "function",
      "constant": true
    },
    {
      "inputs": [],
      "name": "getTasks",
      "outputs": [
        {
          "components": [
            {
              "internalType": "uint256",
              "name": "id",
              "type": "uint256"
            },
            {
              "internalType": "uint256",
              "name": "date",
              "type": "uint256"
            },
            {
              "internalType": "string",
              "name": "content",
              "type": "string"
            },
            {
              "internalType": "string",
              "name": "author",
              "type": "string"
            },
            {
              "internalType": "bool",
              "name": "done",
              "type": "bool"
            }
          ],
          "internalType": "struct ToDo.Task[]",
          "name": "",
          "type": "tuple[]"
        }
      ],
      "stateMutability": "view",
      "type": "function",
      "constant": true
    }
  ],
  "bytecode": "0x608060405234801561001057600080fd5b50610b9c806100206000396000f3fe608060405234801561001057600080fd5b50600436106100415760003560e01c806304a87e38146100465780631d65e77e14610064578063292a458514610098575b600080fd5b61004e6100b4565b60405161005b919061090c565b60405180910390f35b61007e6004803603810190610079919061072f565b610266565b60405161008f95949392919061092e565b60405180910390f35b6100b260048036038101906100ad91906106c3565b6104d5565b005b60606000805480602002602001604051908101604052809291908181526020016000905b8282101561025d57838290600052602060002090600502016040518060a0016040529081600082015481526020016001820154815260200160028201805461011f90610aae565b80601f016020809104026020016040519081016040528092919081815260200182805461014b90610aae565b80156101985780601f1061016d57610100808354040283529160200191610198565b820191906000526020600020905b81548152906001019060200180831161017b57829003601f168201915b505050505081526020016003820180546101b190610aae565b80601f01602080910402602001604051908101604052809291908181526020018280546101dd90610aae565b801561022a5780601f106101ff5761010080835404028352916020019161022a565b820191906000526020600020905b81548152906001019060200180831161020d57829003601f168201915b505050505081526020016004820160009054906101000a900460ff161515151581525050815260200190600101906100d8565b50505050905090565b600080606080600085600087815481106102a9577f4e487b7100000000000000000000000000000000000000000000000000000000600052603260045260246000fd5b906000526020600020906005020160010154600088815481106102f5577f4e487b7100000000000000000000000000000000000000000000000000000000600052603260045260246000fd5b906000526020600020906005020160020160008981548110610340577f4e487b7100000000000000000000000000000000000000000000000000000000600052603260045260246000fd5b906000526020600020906005020160030160008a8154811061038b577f4e487b7100000000000000000000000000000000000000000000000000000000600052603260045260246000fd5b906000526020600020906005020160040160009054906101000a900460ff168280546103b690610aae565b80601f01602080910402602001604051908101604052809291908181526020018280546103e290610aae565b801561042f5780601f106104045761010080835404028352916020019161042f565b820191906000526020600020905b81548152906001019060200180831161041257829003601f168201915b5050505050925081805461044290610aae565b80601f016020809104026020016040519081016040528092919081815260200182805461046e90610aae565b80156104bb5780601f10610490576101008083540402835291602001916104bb565b820191906000526020600020905b81548152906001019060200180831161049e57829003601f168201915b505050505091509450945094509450945091939590929450565b60006040518060a0016040528060008054905081526020014281526020018481526020018381526020016000151581525090806001815401808255809150506001900390600052602060002090600502016000909190919091506000820151816000015560208201518160010155604082015181600201908051906020019061055f9291906105a3565b50606082015181600301908051906020019061057c9291906105a3565b5060808201518160040160006101000a81548160ff02191690831515021790555050505050565b8280546105af90610aae565b90600052602060002090601f0160209004810192826105d15760008555610618565b82601f106105ea57805160ff1916838001178555610618565b82800160010185558215610618579182015b828111156106175782518255916020019190600101906105fc565b5b5090506106259190610629565b5090565b5b8082111561064257600081600090555060010161062a565b5090565b6000610659610654846109c0565b61098f565b90508281526020810184848401111561067157600080fd5b61067c848285610a6c565b509392505050565b600082601f83011261069557600080fd5b81356106a5848260208601610646565b91505092915050565b6000813590506106bd81610b4f565b92915050565b600080604083850312156106d657600080fd5b600083013567ffffffffffffffff8111156106f057600080fd5b6106fc85828601610684565b925050602083013567ffffffffffffffff81111561071957600080fd5b61072585828601610684565b9150509250929050565b60006020828403121561074157600080fd5b600061074f848285016106ae565b91505092915050565b60006107648383610871565b905092915050565b600061077782610a00565b6107818185610a23565b935083602082028501610793856109f0565b8060005b858110156107cf57848403895281516107b08582610758565b94506107bb83610a16565b925060208a01995050600181019050610797565b50829750879550505050505092915050565b6107ea81610a56565b82525050565b6107f981610a56565b82525050565b600061080a82610a0b565b6108148185610a34565b9350610824818560208601610a7b565b61082d81610b3e565b840191505092915050565b600061084382610a0b565b61084d8185610a45565b935061085d818560208601610a7b565b61086681610b3e565b840191505092915050565b600060a08301600083015161088960008601826108ee565b50602083015161089c60208601826108ee565b50604083015184820360408601526108b482826107ff565b915050606083015184820360608601526108ce82826107ff565b91505060808301516108e360808601826107e1565b508091505092915050565b6108f781610a62565b82525050565b61090681610a62565b82525050565b60006020820190508181036000830152610926818461076c565b905092915050565b600060a08201905061094360008301886108fd565b61095060208301876108fd565b81810360408301526109628186610838565b905081810360608301526109768185610838565b905061098560808301846107f0565b9695505050505050565b6000604051905081810181811067ffffffffffffffff821117156109b6576109b5610b0f565b5b8060405250919050565b600067ffffffffffffffff8211156109db576109da610b0f565b5b601f19601f8301169050602081019050919050565b6000819050602082019050919050565b600081519050919050565b600081519050919050565b6000602082019050919050565b600082825260208201905092915050565b600082825260208201905092915050565b600082825260208201905092915050565b60008115159050919050565b6000819050919050565b82818337600083830152505050565b60005b83811015610a99578082015181840152602081019050610a7e565b83811115610aa8576000848401525b50505050565b60006002820490506001821680610ac657607f821691505b60208210811415610ada57610ad9610ae0565b5b50919050565b7f4e487b7100000000000000000000000000000000000000000000000000000000600052602260045260246000fd5b7f4e487b7100000000000000000000000000000000000000000000000000000000600052604160045260246000fd5b6000601f19601f8301169050919050565b610b5881610a62565b8114610b6357600080fd5b5056fea2646970667358221220144c054aca7622b5e38c650523ce58f543fbd5f886edfd39b5452701a545902c64736f6c63430008000033",
  "immutableReferences": {},
  "source": "// SPDX-License-Identifier: MIT\npragma solidity ^0.8.0;\n\n\ncontract ToDo {\n  \n\n  struct Task{\n    uint id;\n    uint date;\n    string content;\n    string author;\n    bool done;\n  }\n\n  Task[] tasks;\n  function createTask(string memory _content,string memory _author) public {\n    tasks.push(Task(tasks.length,block.timestamp,_content,_author,false));\n  \n  }\n\n  function getTask(uint id) public view returns(uint,uint,string memory,string memory,bool )\n  {\n    return (\n     id,\n     tasks[id].date,\n     tasks[id].content,\n     tasks[id].author,\n     tasks[id].done\n    );\n  }\n  function getTasks() public view returns( Task[] memory)\n  {\n    return tasks;\n   \n  }\n}\n",
  "sourcePath": "C:\\Users\\Atiq\\Desktop\\ToDoList\\contracts\\ToDo.sol",
  "compiler": {
    "name": "solc",
    "version": "0.8.0+commit.c7dfd78e.Emscripten.clang"
  },
  "schemaVersion": "3.4.3",
  "updatedAt": "2021-10-20T18:26:15.048Z",
  "networkType": "ethereum",
  "devdoc": {
    "kind": "dev",
    "methods": {},
    "version": 1
  },
  "userdoc": {
    "kind": "user",
    "methods": {},
    "version": 1
  }
}